{
  "address": "0x89f65F2eb9990e88B81e9fd47f271f8517Bdf8b8",
  "abi": [
    {
      "inputs": [
        {
          "internalType": "address",
          "name": "exampleExternalContractAddress",
          "type": "address"
        }
      ],
      "stateMutability": "nonpayable",
      "type": "constructor"
    },
    {
      "anonymous": false,
      "inputs": [
        {
          "indexed": false,
          "internalType": "address",
          "name": "who",
          "type": "address"
        },
        {
          "indexed": false,
          "internalType": "uint256",
          "name": "howmuch",
          "type": "uint256"
        }
      ],
      "name": "Stake",
      "type": "event"
    },
    {
      "inputs": [
        {
          "internalType": "address",
          "name": "",
          "type": "address"
        }
      ],
      "name": "balances",
      "outputs": [
        {
          "internalType": "uint256",
          "name": "",
          "type": "uint256"
        }
      ],
      "stateMutability": "view",
      "type": "function"
    },
    {
      "inputs": [],
      "name": "deadline",
      "outputs": [
        {
          "internalType": "uint256",
          "name": "",
          "type": "uint256"
        }
      ],
      "stateMutability": "view",
      "type": "function"
    },
    {
      "inputs": [],
      "name": "exampleExternalContract",
      "outputs": [
        {
          "internalType": "contract ExampleExternalContract",
          "name": "",
          "type": "address"
        }
      ],
      "stateMutability": "view",
      "type": "function"
    },
    {
      "inputs": [],
      "name": "execute",
      "outputs": [],
      "stateMutability": "nonpayable",
      "type": "function"
    },
    {
      "inputs": [],
      "name": "stake",
      "outputs": [],
      "stateMutability": "payable",
      "type": "function"
    },
    {
      "inputs": [],
      "name": "threshold",
      "outputs": [
        {
          "internalType": "uint256",
          "name": "",
          "type": "uint256"
        }
      ],
      "stateMutability": "view",
      "type": "function"
    },
    {
      "inputs": [],
      "name": "timeLeft",
      "outputs": [
        {
          "internalType": "uint256",
          "name": "timeleft",
          "type": "uint256"
        }
      ],
      "stateMutability": "view",
      "type": "function"
    },
    {
      "inputs": [],
      "name": "withdraw",
      "outputs": [],
      "stateMutability": "nonpayable",
      "type": "function"
    },
    {
      "stateMutability": "payable",
      "type": "receive"
    }
  ],
  "transactionHash": "0x048d52c3d93b02395c07cf89f765890ea2d03c6fa91c9ad56c20153015e38238",
  "args": [
    "0x97d191C88bf83Aa7B8229592bF8553E0874AE6c8"
  ],
  "numDeployments": 1,
  "solcInputHash": "23335e3acda72270d5b8abb1ddf13659",
  "bytecode": "0x6080604052610011426203f480610092565b60025534801561002057600080fd5b506040516109e43803806109e483398101604081905261003f91610064565b600080546001600160a01b0319166001600160a01b03929092169190911790556100b6565b600060208284031215610075578081fd5b81516001600160a01b038116811461008b578182fd5b9392505050565b600082198211156100b157634e487b7160e01b81526011600452602481fd5b500190565b61091f806100c56000396000f3fe60806040526004361061007f5760003560e01c80633ccfd60b1161004e5780633ccfd60b1461010657806342cde4e81461011b57806361461954146101375780639f75f2271461014c57600080fd5b80631300a6d11461009357806327e235e3146100bb57806329dcb0cf146100e85780633a4b66f1146100fe57600080fd5b3661008e5761008c610184565b005b600080fd5b34801561009f57600080fd5b506100a86102eb565b6040519081526020015b60405180910390f35b3480156100c757600080fd5b506100a86100d636600461076e565b60016020526000908152604090205481565b3480156100f457600080fd5b506100a860025481565b61008c610184565b34801561011257600080fd5b5061008c61030f565b34801561012757600080fd5b506100a8670de0b6b3a764000081565b34801561014357600080fd5b5061008c610538565b34801561015857600080fd5b5060005461016c906001600160a01b031681565b6040516001600160a01b0390911681526020016100b2565b60008061018f6102eb565b905081156101c35780156101be5760405162461bcd60e51b81526004016101b59061086d565b60405180910390fd5b6101e3565b600081116101e35760405162461bcd60e51b81526004016101b590610836565b60008060009054906101000a90046001600160a01b03166001600160a01b0316639d9a7fe96040518163ffffffff1660e01b815260040160206040518083038186803b15801561023257600080fd5b505afa158015610246573d6000803e3d6000fd5b505050506040513d601f19601f8201168201806040525081019061026a919061079c565b9050801561028a5760405162461bcd60e51b81526004016101b5906107f5565b33600090815260016020526040812080543492906102a99084906108a4565b9091555050604080513381523460208201527febedb8b3c678666e7f36970bc8f57abf6d8fa2e828c0da91ea5b75bf68ed101a910160405180910390a1505050565b600060025442106102fc5750600090565b4260025461030a91906108bc565b905090565b6001600061031b6102eb565b905081156103465780156103415760405162461bcd60e51b81526004016101b59061086d565b610366565b600081116103665760405162461bcd60e51b81526004016101b590610836565b60008060009054906101000a90046001600160a01b03166001600160a01b0316639d9a7fe96040518163ffffffff1660e01b815260040160206040518083038186803b1580156103b557600080fd5b505afa1580156103c9573d6000803e3d6000fd5b505050506040513d601f19601f820116820180604052508101906103ed919061079c565b9050801561040d5760405162461bcd60e51b81526004016101b5906107f5565b33600090815260016020526040902054806104755760405162461bcd60e51b815260206004820152602260248201527f596f7520646f6e277420686176652062616c616e636520746f20776974686472604482015261617760f01b60648201526084016101b5565b336000818152600160205260408082208290555190919083908381818185875af1925050503d80600081146104c6576040519150601f19603f3d011682016040523d82523d6000602084013e6104cb565b606091505b50509050806105315760405162461bcd60e51b815260206004820152602c60248201527f4661696c656420746f2073656e6420757365722062616c616e6365206261636b60448201526b103a37903a3432903ab9b2b960a11b60648201526084016101b5565b5050505050565b60008060009054906101000a90046001600160a01b03166001600160a01b0316639d9a7fe96040518163ffffffff1660e01b815260040160206040518083038186803b15801561058757600080fd5b505afa15801561059b573d6000803e3d6000fd5b505050506040513d601f19601f820116820180604052508101906105bf919061079c565b905080156105df5760405162461bcd60e51b81526004016101b5906107f5565b6000806105ea6102eb565b905081156106155780156106105760405162461bcd60e51b81526004016101b59061086d565b610635565b600081116106355760405162461bcd60e51b81526004016101b590610836565b47670de0b6b3a76400008110156106865760405162461bcd60e51b8152602060048201526015602482015274151a1c995cda1bdb19081b9bdd081c995858da1959605a1b60448201526064016101b5565b6000805460408051600481526024810182526020810180516001600160e01b031663522e117760e01b17905290516001600160a01b039092169184916106cb916107bc565b60006040518083038185875af1925050503d8060008114610708576040519150601f19603f3d011682016040523d82523d6000602084013e61070d565b606091505b50509050806105315760405162461bcd60e51b815260206004820152602760248201527f6578616d706c6545787465726e616c436f6e74726163742e636f6d706c6574656044820152660819985a5b195960ca1b60648201526084016101b5565b60006020828403121561077f578081fd5b81356001600160a01b0381168114610795578182fd5b9392505050565b6000602082840312156107ad578081fd5b81518015158114610795578182fd5b60008251815b818110156107dc57602081860181015185830152016107c2565b818111156107ea5782828501525b509190910192915050565b60208082526021908201527f7374616b696e672070726f6365737320616c726561647920636f6d706c6574656040820152601960fa1b606082015260800190565b6020808252601b908201527f446561646c696e6520697320616c726561647920726561636865640000000000604082015260600190565b6020808252601b908201527f446561646c696e65206973206e6f742072656163686564207965740000000000604082015260600190565b600082198211156108b7576108b76108d3565b500190565b6000828210156108ce576108ce6108d3565b500390565b634e487b7160e01b600052601160045260246000fdfea2646970667358221220dd27e376d9fe394569608e7892a601ce94b9c349512d4deb4b22f6231d77a92364736f6c63430008040033",
  "devdoc": {
    "kind": "dev",
    "methods": {},
    "version": 1
  },
  "userdoc": {
    "kind": "user",
    "methods": {},
    "version": 1
  },
  "storageLayout": {
    "storage": [
      {
        "astId": 19,
        "contract": "contracts/Staker.sol:Staker",
        "label": "exampleExternalContract",
        "offset": 0,
        "slot": "0",
        "type": "t_contract(ExampleExternalContract)12"
      },
      {
        "astId": 41,
        "contract": "contracts/Staker.sol:Staker",
        "label": "balances",
        "offset": 0,
        "slot": "1",
        "type": "t_mapping(t_address,t_uint256)"
      },
      {
        "astId": 47,
        "contract": "contracts/Staker.sol:Staker",
        "label": "deadline",
        "offset": 0,
        "slot": "2",
        "type": "t_uint256"
      }
    ],
    "types": {
      "t_address": {
        "encoding": "inplace",
        "label": "address",
        "numberOfBytes": "20"
      },
      "t_contract(ExampleExternalContract)12": {
        "encoding": "inplace",
        "label": "contract ExampleExternalContract",
        "numberOfBytes": "20"
      },
      "t_mapping(t_address,t_uint256)": {
        "encoding": "mapping",
        "key": "t_address",
        "label": "mapping(address => uint256)",
        "numberOfBytes": "32",
        "value": "t_uint256"
      },
      "t_uint256": {
        "encoding": "inplace",
        "label": "uint256",
        "numberOfBytes": "32"
      }
    }
  }
}